{
  "_format": "hh-sol-artifact-1",
  "contractName": "Presale",
  "sourceName": "contracts/presale.sol",
  "abi": [
    {
      "inputs": [
        {
          "internalType": "address",
          "name": "_tokenAddress",
          "type": "address"
        },
        {
          "internalType": "address payable",
          "name": "_wallet",
          "type": "address"
        },
        {
          "internalType": "uint256",
          "name": "_minInvestment",
          "type": "uint256"
        },
        {
          "internalType": "uint256",
          "name": "_cap",
          "type": "uint256"
        },
        {
          "internalType": "uint256",
          "name": "_rate",
          "type": "uint256"
        }
      ],
      "stateMutability": "nonpayable",
      "type": "constructor"
    },
    {
      "anonymous": false,
      "inputs": [],
      "name": "Finalized",
      "type": "event"
    },
    {
      "anonymous": false,
      "inputs": [
        {
          "indexed": true,
          "internalType": "address",
          "name": "previousOwner",
          "type": "address"
        },
        {
          "indexed": true,
          "internalType": "address",
          "name": "newOwner",
          "type": "address"
        }
      ],
      "name": "OwnershipTransferred",
      "type": "event"
    },
    {
      "anonymous": false,
      "inputs": [
        {
          "indexed": false,
          "internalType": "address",
          "name": "account",
          "type": "address"
        }
      ],
      "name": "Paused",
      "type": "event"
    },
    {
      "anonymous": false,
      "inputs": [
        {
          "indexed": true,
          "internalType": "address",
          "name": "purchaser",
          "type": "address"
        },
        {
          "indexed": true,
          "internalType": "address",
          "name": "beneficiary",
          "type": "address"
        },
        {
          "indexed": false,
          "internalType": "uint256",
          "name": "value",
          "type": "uint256"
        },
        {
          "indexed": false,
          "internalType": "uint256",
          "name": "amount",
          "type": "uint256"
        }
      ],
      "name": "TokenPurchase",
      "type": "event"
    },
    {
      "anonymous": false,
      "inputs": [
        {
          "indexed": false,
          "internalType": "address",
          "name": "account",
          "type": "address"
        }
      ],
      "name": "Unpaused",
      "type": "event"
    },
    {
      "inputs": [
        {
          "internalType": "address",
          "name": "beneficiary",
          "type": "address"
        }
      ],
      "name": "buyTokens",
      "outputs": [],
      "stateMutability": "payable",
      "type": "function"
    },
    {
      "inputs": [],
      "name": "cap",
      "outputs": [
        {
          "internalType": "uint256",
          "name": "",
          "type": "uint256"
        }
      ],
      "stateMutability": "view",
      "type": "function"
    },
    {
      "inputs": [],
      "name": "contactInformation",
      "outputs": [
        {
          "internalType": "string",
          "name": "",
          "type": "string"
        }
      ],
      "stateMutability": "view",
      "type": "function"
    },
    {
      "inputs": [],
      "name": "finalize",
      "outputs": [],
      "stateMutability": "nonpayable",
      "type": "function"
    },
    {
      "inputs": [],
      "name": "hasEnded",
      "outputs": [
        {
          "internalType": "bool",
          "name": "",
          "type": "bool"
        }
      ],
      "stateMutability": "view",
      "type": "function"
    },
    {
      "inputs": [],
      "name": "isFinalized",
      "outputs": [
        {
          "internalType": "bool",
          "name": "",
          "type": "bool"
        }
      ],
      "stateMutability": "view",
      "type": "function"
    },
    {
      "inputs": [],
      "name": "minInvestment",
      "outputs": [
        {
          "internalType": "uint256",
          "name": "",
          "type": "uint256"
        }
      ],
      "stateMutability": "view",
      "type": "function"
    },
    {
      "inputs": [],
      "name": "owner",
      "outputs": [
        {
          "internalType": "address",
          "name": "",
          "type": "address"
        }
      ],
      "stateMutability": "view",
      "type": "function"
    },
    {
      "inputs": [],
      "name": "paused",
      "outputs": [
        {
          "internalType": "bool",
          "name": "",
          "type": "bool"
        }
      ],
      "stateMutability": "view",
      "type": "function"
    },
    {
      "inputs": [],
      "name": "rate",
      "outputs": [
        {
          "internalType": "uint256",
          "name": "",
          "type": "uint256"
        }
      ],
      "stateMutability": "view",
      "type": "function"
    },
    {
      "inputs": [],
      "name": "renounceOwnership",
      "outputs": [],
      "stateMutability": "nonpayable",
      "type": "function"
    },
    {
      "inputs": [
        {
          "internalType": "string",
          "name": "info",
          "type": "string"
        }
      ],
      "name": "setContactInformation",
      "outputs": [],
      "stateMutability": "nonpayable",
      "type": "function"
    },
    {
      "inputs": [
        {
          "internalType": "address",
          "name": "newOwner",
          "type": "address"
        }
      ],
      "name": "transferOwnership",
      "outputs": [],
      "stateMutability": "nonpayable",
      "type": "function"
    },
    {
      "inputs": [],
      "name": "wallet",
      "outputs": [
        {
          "internalType": "address",
          "name": "",
          "type": "address"
        }
      ],
      "stateMutability": "view",
      "type": "function"
    },
    {
      "inputs": [],
      "name": "weiRaised",
      "outputs": [
        {
          "internalType": "uint256",
          "name": "",
          "type": "uint256"
        }
      ],
      "stateMutability": "view",
      "type": "function"
    },
    {
      "stateMutability": "payable",
      "type": "receive"
    }
  ],
  "bytecode": "0x60806040523480156200001157600080fd5b506040516200191438038062001914833981810160405281019062000037919062000348565b60008060006101000a81548160ff02191690831515021790555062000071620000656200019160201b60201c565b6200019960201b60201c565b600073ffffffffffffffffffffffffffffffffffffffff168473ffffffffffffffffffffffffffffffffffffffff161415620000ac57600080fd5b6000831015620000bb57600080fd5b60008211620000c957600080fd5b84600160006101000a81548173ffffffffffffffffffffffffffffffffffffffff021916908373ffffffffffffffffffffffffffffffffffffffff16021790555083600260006101000a81548173ffffffffffffffffffffffffffffffffffffffff021916908373ffffffffffffffffffffffffffffffffffffffff16021790555080600681905550670de0b6b3a764000083620001689190620003ff565b6005819055506305f5e10082620001809190620003ff565b600481905550505050505062000460565b600033905090565b60008060019054906101000a900473ffffffffffffffffffffffffffffffffffffffff16905081600060016101000a81548173ffffffffffffffffffffffffffffffffffffffff021916908373ffffffffffffffffffffffffffffffffffffffff1602179055508173ffffffffffffffffffffffffffffffffffffffff168173ffffffffffffffffffffffffffffffffffffffff167f8be0079c531659141344cd1fd0a4f28419497f9722a3daafe3b4186f6b6457e060405160405180910390a35050565b600080fd5b600073ffffffffffffffffffffffffffffffffffffffff82169050919050565b6000620002908262000263565b9050919050565b620002a28162000283565b8114620002ae57600080fd5b50565b600081519050620002c28162000297565b92915050565b6000620002d58262000263565b9050919050565b620002e781620002c8565b8114620002f357600080fd5b50565b6000815190506200030781620002dc565b92915050565b6000819050919050565b62000322816200030d565b81146200032e57600080fd5b50565b600081519050620003428162000317565b92915050565b600080600080600060a086880312156200036757620003666200025e565b5b60006200037788828901620002b1565b95505060206200038a88828901620002f6565b94505060406200039d8882890162000331565b9350506060620003b08882890162000331565b9250506080620003c38882890162000331565b9150509295509295909350565b7f4e487b7100000000000000000000000000000000000000000000000000000000600052601160045260246000fd5b60006200040c826200030d565b915062000419836200030d565b9250817fffffffffffffffffffffffffffffffffffffffffffffffffffffffffffffffff0483118215151615620004555762000454620003d0565b5b828202905092915050565b6114a480620004706000396000f3fe6080604052600436106100ec5760003560e01c8063715018a61161008a578063b967a52e11610059578063b967a52e146102b2578063ec8ac4d8146102db578063ecb70fb7146102f7578063f2fde38b14610322576100fc565b8063715018a61461021a5780638ac2c680146102315780638d4e40831461025c5780638da5cb5b14610287576100fc565b80634042b66f116100c65780634042b66f146101825780634bb278f3146101ad578063521eb273146101c45780635c975abb146101ef576100fc565b80632c4e722e14610101578063355274ea1461012c57806336f7ab5e14610157576100fc565b366100fc576100fa3361034b565b005b600080fd5b34801561010d57600080fd5b506101166105cd565b6040516101239190610cc8565b60405180910390f35b34801561013857600080fd5b506101416105d3565b60405161014e9190610cc8565b60405180910390f35b34801561016357600080fd5b5061016c6105d9565b6040516101799190610d7c565b60405180910390f35b34801561018e57600080fd5b50610197610667565b6040516101a49190610cc8565b60405180910390f35b3480156101b957600080fd5b506101c261066d565b005b3480156101d057600080fd5b506101d961075d565b6040516101e69190610ddf565b60405180910390f35b3480156101fb57600080fd5b50610204610783565b6040516102119190610e15565b60405180910390f35b34801561022657600080fd5b5061022f610799565b005b34801561023d57600080fd5b50610246610821565b6040516102539190610cc8565b60405180910390f35b34801561026857600080fd5b50610271610827565b60405161027e9190610e15565b60405180910390f35b34801561029357600080fd5b5061029c61083a565b6040516102a99190610ddf565b60405180910390f35b3480156102be57600080fd5b506102d960048036038101906102d49190610f79565b610863565b005b6102f560048036038101906102f09190610fee565b61034b565b005b34801561030357600080fd5b5061030c6108f9565b6040516103199190610e15565b60405180910390f35b34801561032e57600080fd5b5061034960048036038101906103449190610fee565b61091a565b005b610353610783565b15610393576040517f08c379a000000000000000000000000000000000000000000000000000000000815260040161038a90611067565b60405180910390fd5b600073ffffffffffffffffffffffffffffffffffffffff168173ffffffffffffffffffffffffffffffffffffffff1614156103cd57600080fd5b6005543410610411576040517f08c379a0000000000000000000000000000000000000000000000000000000008152600401610408906110f9565b60405180910390fd5b600454600654346003546104259190611148565b61042f919061119e565b1115610470576040517f08c379a000000000000000000000000000000000000000000000000000000000815260040161046790611244565b60405180910390fd5b600034905061047e81610a12565b610489600654610a12565b806003546104979190611148565b6003819055506000600654826104ad919061119e565b90506104b881610a12565b600160009054906101000a900473ffffffffffffffffffffffffffffffffffffffff1673ffffffffffffffffffffffffffffffffffffffff1663a9059cbb84836040518363ffffffff1660e01b8152600401610515929190611264565b6020604051808303816000875af1158015610534573d6000803e3d6000fd5b505050506040513d601f19601f8201168201806040525081019061055891906112b9565b508273ffffffffffffffffffffffffffffffffffffffff163373ffffffffffffffffffffffffffffffffffffffff167f623b3804fa71d67900d064613da8f94b9617215ee90799290593e1745087ad1884846040516105b89291906112e6565b60405180910390a36105c8610aab565b505050565b60065481565b60045481565b600880546105e69061133e565b80601f01602080910402602001604051908101604052809291908181526020018280546106129061133e565b801561065f5780601f106106345761010080835404028352916020019161065f565b820191906000526020600020905b81548152906001019060200180831161064257829003601f168201915b505050505081565b60035481565b610675610b16565b73ffffffffffffffffffffffffffffffffffffffff1661069361083a565b73ffffffffffffffffffffffffffffffffffffffff16146106e9576040517f08c379a00000000000000000000000000000000000000000000000000000000081526004016106e0906113bc565b60405180910390fd5b600760009054906101000a900460ff161561070357600080fd5b61070b6108f9565b61071457600080fd5b7f6823b073d48d6e3a7d385eeb601452d680e74bb46afe3255a7d778f3a9b1768160405160405180910390a16001600760006101000a81548160ff021916908315150217905550565b600260009054906101000a900473ffffffffffffffffffffffffffffffffffffffff1681565b60008060009054906101000a900460ff16905090565b6107a1610b16565b73ffffffffffffffffffffffffffffffffffffffff166107bf61083a565b73ffffffffffffffffffffffffffffffffffffffff1614610815576040517f08c379a000000000000000000000000000000000000000000000000000000000815260040161080c906113bc565b60405180910390fd5b61081f6000610b1e565b565b60055481565b600760009054906101000a900460ff1681565b60008060019054906101000a900473ffffffffffffffffffffffffffffffffffffffff16905090565b61086b610b16565b73ffffffffffffffffffffffffffffffffffffffff1661088961083a565b73ffffffffffffffffffffffffffffffffffffffff16146108df576040517f08c379a00000000000000000000000000000000000000000000000000000000081526004016108d6906113bc565b60405180910390fd5b80600890805190602001906108f5929190610c0c565b5050565b60008060045460065460035461090f919061119e565b101590508091505090565b610922610b16565b73ffffffffffffffffffffffffffffffffffffffff1661094061083a565b73ffffffffffffffffffffffffffffffffffffffff1614610996576040517f08c379a000000000000000000000000000000000000000000000000000000000815260040161098d906113bc565b60405180910390fd5b600073ffffffffffffffffffffffffffffffffffffffff168173ffffffffffffffffffffffffffffffffffffffff161415610a06576040517f08c379a00000000000000000000000000000000000000000000000000000000081526004016109fd9061144e565b60405180910390fd5b610a0f81610b1e565b50565b610aa881604051602401610a269190610cc8565b6040516020818303038152906040527ff5b1bba9000000000000000000000000000000000000000000000000000000007bffffffffffffffffffffffffffffffffffffffffffffffffffffffff19166020820180517bffffffffffffffffffffffffffffffffffffffffffffffffffffffff8381831617835250505050610be3565b50565b600260009054906101000a900473ffffffffffffffffffffffffffffffffffffffff1673ffffffffffffffffffffffffffffffffffffffff166108fc349081150290604051600060405180830381858888f19350505050158015610b13573d6000803e3d6000fd5b50565b600033905090565b60008060019054906101000a900473ffffffffffffffffffffffffffffffffffffffff16905081600060016101000a81548173ffffffffffffffffffffffffffffffffffffffff021916908373ffffffffffffffffffffffffffffffffffffffff1602179055508173ffffffffffffffffffffffffffffffffffffffff168173ffffffffffffffffffffffffffffffffffffffff167f8be0079c531659141344cd1fd0a4f28419497f9722a3daafe3b4186f6b6457e060405160405180910390a35050565b60008151905060006a636f6e736f6c652e6c6f679050602083016000808483855afa5050505050565b828054610c189061133e565b90600052602060002090601f016020900481019282610c3a5760008555610c81565b82601f10610c5357805160ff1916838001178555610c81565b82800160010185558215610c81579182015b82811115610c80578251825591602001919060010190610c65565b5b509050610c8e9190610c92565b5090565b5b80821115610cab576000816000905550600101610c93565b5090565b6000819050919050565b610cc281610caf565b82525050565b6000602082019050610cdd6000830184610cb9565b92915050565b600081519050919050565b600082825260208201905092915050565b60005b83811015610d1d578082015181840152602081019050610d02565b83811115610d2c576000848401525b50505050565b6000601f19601f8301169050919050565b6000610d4e82610ce3565b610d588185610cee565b9350610d68818560208601610cff565b610d7181610d32565b840191505092915050565b60006020820190508181036000830152610d968184610d43565b905092915050565b600073ffffffffffffffffffffffffffffffffffffffff82169050919050565b6000610dc982610d9e565b9050919050565b610dd981610dbe565b82525050565b6000602082019050610df46000830184610dd0565b92915050565b60008115159050919050565b610e0f81610dfa565b82525050565b6000602082019050610e2a6000830184610e06565b92915050565b6000604051905090565b600080fd5b600080fd5b600080fd5b600080fd5b7f4e487b7100000000000000000000000000000000000000000000000000000000600052604160045260246000fd5b610e8682610d32565b810181811067ffffffffffffffff82111715610ea557610ea4610e4e565b5b80604052505050565b6000610eb8610e30565b9050610ec48282610e7d565b919050565b600067ffffffffffffffff821115610ee457610ee3610e4e565b5b610eed82610d32565b9050602081019050919050565b82818337600083830152505050565b6000610f1c610f1784610ec9565b610eae565b905082815260208101848484011115610f3857610f37610e49565b5b610f43848285610efa565b509392505050565b600082601f830112610f6057610f5f610e44565b5b8135610f70848260208601610f09565b91505092915050565b600060208284031215610f8f57610f8e610e3a565b5b600082013567ffffffffffffffff811115610fad57610fac610e3f565b5b610fb984828501610f4b565b91505092915050565b610fcb81610dbe565b8114610fd657600080fd5b50565b600081359050610fe881610fc2565b92915050565b60006020828403121561100457611003610e3a565b5b600061101284828501610fd9565b91505092915050565b7f5061757361626c653a2070617573656400000000000000000000000000000000600082015250565b6000611051601083610cee565b915061105c8261101b565b602082019050919050565b6000602082019050818103600083015261108081611044565b9050919050565b7f54686520656e74657220616d6f756e742069732062656c6f77206d696e696d7560008201527f6d00000000000000000000000000000000000000000000000000000000000000602082015250565b60006110e3602183610cee565b91506110ee82611087565b604082019050919050565b60006020820190508181036000830152611112816110d6565b9050919050565b7f4e487b7100000000000000000000000000000000000000000000000000000000600052601160045260246000fd5b600061115382610caf565b915061115e83610caf565b9250827fffffffffffffffffffffffffffffffffffffffffffffffffffffffffffffffff0382111561119357611192611119565b5b828201905092915050565b60006111a982610caf565b91506111b483610caf565b9250817fffffffffffffffffffffffffffffffffffffffffffffffffffffffffffffffff04831182151516156111ed576111ec611119565b5b828202905092915050565b7f47726561746572207468616e2063617000000000000000000000000000000000600082015250565b600061122e601083610cee565b9150611239826111f8565b602082019050919050565b6000602082019050818103600083015261125d81611221565b9050919050565b60006040820190506112796000830185610dd0565b6112866020830184610cb9565b9392505050565b61129681610dfa565b81146112a157600080fd5b50565b6000815190506112b38161128d565b92915050565b6000602082840312156112cf576112ce610e3a565b5b60006112dd848285016112a4565b91505092915050565b60006040820190506112fb6000830185610cb9565b6113086020830184610cb9565b9392505050565b7f4e487b7100000000000000000000000000000000000000000000000000000000600052602260045260246000fd5b6000600282049050600182168061135657607f821691505b6020821081141561136a5761136961130f565b5b50919050565b7f4f776e61626c653a2063616c6c6572206973206e6f7420746865206f776e6572600082015250565b60006113a6602083610cee565b91506113b182611370565b602082019050919050565b600060208201905081810360008301526113d581611399565b9050919050565b7f4f776e61626c653a206e6577206f776e657220697320746865207a65726f206160008201527f6464726573730000000000000000000000000000000000000000000000000000602082015250565b6000611438602683610cee565b9150611443826113dc565b604082019050919050565b600060208201905081810360008301526114678161142b565b905091905056fea26469706673582212207c99495da14670bb8c05d67b5a81c87858cbc946d4fa539067f55df64a813c2e64736f6c634300080b0033",
  "linkReferences": {},
  "deployedLinkReferences": {}
}