{
  "_format": "hh-sol-artifact-1",
  "contractName": "Presale",
  "sourceName": "contracts/Presale.sol",
  "abi": [
    {
      "inputs": [
        {
          "internalType": "address[]",
          "name": "users",
          "type": "address[]"
        },
        {
          "internalType": "uint256",
          "name": "closingTime",
          "type": "uint256"
        },
        {
          "internalType": "uint256",
          "name": "_maxSupply",
          "type": "uint256"
        }
      ],
      "stateMutability": "payable",
      "type": "constructor"
    },
    {
      "anonymous": false,
      "inputs": [
        {
          "indexed": true,
          "internalType": "address",
          "name": "_from",
          "type": "address"
        },
        {
          "indexed": false,
          "internalType": "uint256",
          "name": "_value",
          "type": "uint256"
        }
      ],
      "name": "Deposit",
      "type": "event"
    },
    {
      "anonymous": false,
      "inputs": [
        {
          "indexed": true,
          "internalType": "address",
          "name": "previousOwner",
          "type": "address"
        },
        {
          "indexed": true,
          "internalType": "address",
          "name": "newOwner",
          "type": "address"
        }
      ],
      "name": "OwnershipTransferred",
      "type": "event"
    },
    {
      "anonymous": false,
      "inputs": [
        {
          "indexed": true,
          "internalType": "address",
          "name": "_to",
          "type": "address"
        },
        {
          "indexed": false,
          "internalType": "uint256",
          "name": "_value",
          "type": "uint256"
        }
      ],
      "name": "Payout",
      "type": "event"
    },
    {
      "anonymous": false,
      "inputs": [
        {
          "indexed": true,
          "internalType": "address",
          "name": "_to",
          "type": "address"
        },
        {
          "indexed": false,
          "internalType": "uint256",
          "name": "_value",
          "type": "uint256"
        }
      ],
      "name": "Refund",
      "type": "event"
    },
    {
      "inputs": [
        {
          "internalType": "address",
          "name": "",
          "type": "address"
        }
      ],
      "name": "balances",
      "outputs": [
        {
          "internalType": "uint256",
          "name": "",
          "type": "uint256"
        }
      ],
      "stateMutability": "view",
      "type": "function"
    },
    {
      "inputs": [
        {
          "internalType": "address",
          "name": "presaleAddress",
          "type": "address"
        }
      ],
      "name": "closeAllowAll",
      "outputs": [],
      "stateMutability": "nonpayable",
      "type": "function"
    },
    {
      "inputs": [],
      "name": "closed",
      "outputs": [
        {
          "internalType": "bool",
          "name": "",
          "type": "bool"
        }
      ],
      "stateMutability": "view",
      "type": "function"
    },
    {
      "inputs": [
        {
          "internalType": "address",
          "name": "buyer",
          "type": "address"
        },
        {
          "internalType": "uint256",
          "name": "amount",
          "type": "uint256"
        }
      ],
      "name": "deposit",
      "outputs": [],
      "stateMutability": "nonpayable",
      "type": "function"
    },
    {
      "inputs": [
        {
          "internalType": "address",
          "name": "buyer",
          "type": "address"
        }
      ],
      "name": "included",
      "outputs": [
        {
          "internalType": "bool",
          "name": "ok",
          "type": "bool"
        }
      ],
      "stateMutability": "view",
      "type": "function"
    },
    {
      "inputs": [],
      "name": "kill",
      "outputs": [],
      "stateMutability": "nonpayable",
      "type": "function"
    },
    {
      "inputs": [],
      "name": "owner",
      "outputs": [
        {
          "internalType": "address",
          "name": "",
          "type": "address"
        }
      ],
      "stateMutability": "view",
      "type": "function"
    },
    {
      "inputs": [],
      "name": "payout",
      "outputs": [],
      "stateMutability": "payable",
      "type": "function"
    },
    {
      "inputs": [],
      "name": "renounceOwnership",
      "outputs": [],
      "stateMutability": "nonpayable",
      "type": "function"
    },
    {
      "inputs": [
        {
          "internalType": "address",
          "name": "tokenAddress",
          "type": "address"
        }
      ],
      "name": "setToken",
      "outputs": [],
      "stateMutability": "nonpayable",
      "type": "function"
    },
    {
      "inputs": [],
      "name": "token",
      "outputs": [
        {
          "internalType": "contract ERC20",
          "name": "",
          "type": "address"
        }
      ],
      "stateMutability": "view",
      "type": "function"
    },
    {
      "inputs": [],
      "name": "totalDeposits",
      "outputs": [
        {
          "internalType": "uint256",
          "name": "",
          "type": "uint256"
        }
      ],
      "stateMutability": "view",
      "type": "function"
    },
    {
      "inputs": [
        {
          "internalType": "address",
          "name": "newOwner",
          "type": "address"
        }
      ],
      "name": "transferOwnership",
      "outputs": [],
      "stateMutability": "nonpayable",
      "type": "function"
    },
    {
      "inputs": [
        {
          "internalType": "address",
          "name": "",
          "type": "address"
        }
      ],
      "name": "whitelist",
      "outputs": [
        {
          "internalType": "bool",
          "name": "",
          "type": "bool"
        }
      ],
      "stateMutability": "view",
      "type": "function"
    }
  ],
  "bytecode": "0x6080604052604051620023073803806200230783398181016040528101906200002991906200097d565b620000496200003d620000c960201b60201c565b620000d160201b60201c565b6200005a816200019560201b60201c565b6200006c6000620001b560201b60201c565b6200007d33620001d260201b60201c565b6200008e836200024360201b60201c565b620000af620000a26200032d60201b60201c565b346200035660201b60201c565b620000c0826200052f60201b60201c565b50505062000cf7565b600033905090565b60008060009054906101000a900473ffffffffffffffffffffffffffffffffffffffff169050816000806101000a81548173ffffffffffffffffffffffffffffffffffffffff021916908373ffffffffffffffffffffffffffffffffffffffff1602179055508173ffffffffffffffffffffffffffffffffffffffff168173ffffffffffffffffffffffffffffffffffffffff167f8be0079c531659141344cd1fd0a4f28419497f9722a3daafe3b4186f6b6457e060405160405180910390a35050565b620001ab816200053960201b620009531760201c565b8060058190555050565b80600360016101000a81548160ff02191690831515021790555050565b60018060008373ffffffffffffffffffffffffffffffffffffffff1673ffffffffffffffffffffffffffffffffffffffff16815260200190815260200160002060006101000a81548160ff02191690831515021790555060016008546200023a919062000a27565b60088190555050565b62000253620000c960201b60201c565b73ffffffffffffffffffffffffffffffffffffffff16620002796200032d60201b60201c565b73ffffffffffffffffffffffffffffffffffffffff1614620002d2576040517f08c379a0000000000000000000000000000000000000000000000000000000008152600401620002c99062000ae5565b60405180910390fd5b60005b815181101562000329576000828281518110620002f757620002f662000b07565b5b602002602001015190506200031281620001d260201b60201c565b508080620003209062000b36565b915050620002d5565b5050565b60008060009054906101000a900473ffffffffffffffffffffffffffffffffffffffff16905090565b600360019054906101000a900460ff16156200037157600080fd5b620003896006546200053960201b620009531760201c565b620003a16005546200053960201b620009531760201c565b60055460065410620003ea576040517f08c379a0000000000000000000000000000000000000000000000000000000008152600401620003e19062000bd4565b60405180910390fd5b620003fa620005dc60201b60201c565b6200040b33620005fb60201b60201c565b6200044d576040517f08c379a0000000000000000000000000000000000000000000000000000000008152600401620004449062000c6c565b60405180910390fd5b80600260008473ffffffffffffffffffffffffffffffffffffffff1673ffffffffffffffffffffffffffffffffffffffff16815260200190815260200160002060008282546200049e919062000a27565b925050819055508060066000828254620004b9919062000a27565b925050819055508060056000828254620004d4919062000c8e565b925050819055508173ffffffffffffffffffffffffffffffffffffffff167fe1fffcc4923d04b559f4d29a8bfc6cda04eb5b0d3c460751c2402c5c5cc9109c8260405162000523919062000cda565b60405180910390a25050565b8060048190555050565b620005d98160405160240162000550919062000cda565b6040516020818303038152906040527ff5b1bba9000000000000000000000000000000000000000000000000000000007bffffffffffffffffffffffffffffffffffffffffffffffffffffffff19166020820180517bffffffffffffffffffffffffffffffffffffffffffffffffffffffff83818316178352505050506200066960201b60201c565b50565b600454421115620005f957620005f8336200069260201b60201c565b5b565b6000600360009054906101000a900460ff1680620006625750600160008373ffffffffffffffffffffffffffffffffffffffff1673ffffffffffffffffffffffffffffffffffffffff16815260200190815260200160002060009054906101000a900460ff165b9050919050565b60008151905060006a636f6e736f6c652e6c6f679050602083016000808483855afa5050505050565b620006a26200032d60201b60201c565b73ffffffffffffffffffffffffffffffffffffffff163373ffffffffffffffffffffffffffffffffffffffff1614620006da57600080fd5b600360019054906101000a900460ff1615620006f557600080fd5b620007076001620001b560201b60201c565b8073ffffffffffffffffffffffffffffffffffffffff166108fc6006549081150290604051600060405180830381858888f1935050505015801562000750573d6000803e3d6000fd5b5050565b6000604051905090565b600080fd5b600080fd5b600080fd5b6000601f19601f8301169050919050565b7f4e487b7100000000000000000000000000000000000000000000000000000000600052604160045260246000fd5b620007b8826200076d565b810181811067ffffffffffffffff82111715620007da57620007d96200077e565b5b80604052505050565b6000620007ef62000754565b9050620007fd8282620007ad565b919050565b600067ffffffffffffffff82111562000820576200081f6200077e565b5b602082029050602081019050919050565b600080fd5b600073ffffffffffffffffffffffffffffffffffffffff82169050919050565b6000620008638262000836565b9050919050565b620008758162000856565b81146200088157600080fd5b50565b60008151905062000895816200086a565b92915050565b6000620008b2620008ac8462000802565b620007e3565b90508083825260208201905060208402830185811115620008d857620008d762000831565b5b835b81811015620009055780620008f0888262000884565b845260208401935050602081019050620008da565b5050509392505050565b600082601f83011262000927576200092662000768565b5b8151620009398482602086016200089b565b91505092915050565b6000819050919050565b620009578162000942565b81146200096357600080fd5b50565b60008151905062000977816200094c565b92915050565b6000806000606084860312156200099957620009986200075e565b5b600084015167ffffffffffffffff811115620009ba57620009b962000763565b5b620009c8868287016200090f565b9350506020620009db8682870162000966565b9250506040620009ee8682870162000966565b9150509250925092565b7f4e487b7100000000000000000000000000000000000000000000000000000000600052601160045260246000fd5b600062000a348262000942565b915062000a418362000942565b9250827fffffffffffffffffffffffffffffffffffffffffffffffffffffffffffffffff0382111562000a795762000a78620009f8565b5b828201905092915050565b600082825260208201905092915050565b7f4f776e61626c653a2063616c6c6572206973206e6f7420746865206f776e6572600082015250565b600062000acd60208362000a84565b915062000ada8262000a95565b602082019050919050565b6000602082019050818103600083015262000b008162000abe565b9050919050565b7f4e487b7100000000000000000000000000000000000000000000000000000000600052603260045260246000fd5b600062000b438262000942565b91507fffffffffffffffffffffffffffffffffffffffffffffffffffffffffffffffff82141562000b795762000b78620009f8565b5b600182019050919050565b7f536f6c64206f7574000000000000000000000000000000000000000000000000600082015250565b600062000bbc60088362000a84565b915062000bc98262000b84565b602082019050919050565b6000602082019050818103600083015262000bef8162000bad565b9050919050565b7f41646472657373206973206e6f742077686974656c697374656420666f72207060008201527f7572636861736500000000000000000000000000000000000000000000000000602082015250565b600062000c5460278362000a84565b915062000c618262000bf6565b604082019050919050565b6000602082019050818103600083015262000c878162000c45565b9050919050565b600062000c9b8262000942565b915062000ca88362000942565b92508282101562000cbe5762000cbd620009f8565b5b828203905092915050565b62000cd48162000942565b82525050565b600060208201905062000cf1600083018462000cc9565b92915050565b6116008062000d076000396000f3fe6080604052600436106100dd5760003560e01c80637d8820971161007f5780639b19251a116100595780639b19251a14610253578063c559743a14610290578063f2fde38b146102cd578063fc0c546a146102f6576100dd565b80637d882097146101d45780638da5cb5b146101ff578063984b6cba1461022a576100dd565b806347e7ef24116100bb57806347e7ef241461015f578063597e1fb51461018857806363bd1d4a146101b3578063715018a6146101bd576100dd565b8063144fa6d7146100e257806327e235e31461010b57806341c0e1b514610148575b600080fd5b3480156100ee57600080fd5b5061010960048036038101906101049190610fdf565b610321565b005b34801561011757600080fd5b50610132600480360381019061012d9190610fdf565b6103a4565b60405161013f9190611025565b60405180910390f35b34801561015457600080fd5b5061015d6103bc565b005b34801561016b57600080fd5b506101866004803603810190610181919061106c565b61041b565b005b34801561019457600080fd5b5061019d6105bb565b6040516101aa91906110c7565b60405180910390f35b6101bb6105ce565b005b3480156101c957600080fd5b506101d2610627565b005b3480156101e057600080fd5b506101e96106af565b6040516101f69190611025565b60405180910390f35b34801561020b57600080fd5b506102146106b5565b60405161022191906110f1565b60405180910390f35b34801561023657600080fd5b50610251600480360381019061024c9190610fdf565b6106de565b005b34801561025f57600080fd5b5061027a60048036038101906102759190610fdf565b6107a8565b60405161028791906110c7565b60405180910390f35b34801561029c57600080fd5b506102b760048036038101906102b29190610fdf565b6107c8565b6040516102c491906110c7565b60405180910390f35b3480156102d957600080fd5b506102f460048036038101906102ef9190610fdf565b610835565b005b34801561030257600080fd5b5061030b61092d565b604051610318919061116b565b60405180910390f35b6103296106b5565b73ffffffffffffffffffffffffffffffffffffffff163373ffffffffffffffffffffffffffffffffffffffff161461036057600080fd5b80600760006101000a81548173ffffffffffffffffffffffffffffffffffffffff021916908373ffffffffffffffffffffffffffffffffffffffff16021790555050565b60026020528060005260406000206000915090505481565b6103c46106b5565b73ffffffffffffffffffffffffffffffffffffffff163373ffffffffffffffffffffffffffffffffffffffff16146103fb57600080fd5b6104036106b5565b73ffffffffffffffffffffffffffffffffffffffff16ff5b600360019054906101000a900460ff161561043557600080fd5b610440600654610953565b61044b600554610953565b60055460065410610491576040517f08c379a0000000000000000000000000000000000000000000000000000000008152600401610488906111e3565b60405180910390fd5b6104996109ec565b6104a2336107c8565b6104e1576040517f08c379a00000000000000000000000000000000000000000000000000000000081526004016104d890611275565b60405180910390fd5b80600260008473ffffffffffffffffffffffffffffffffffffffff1673ffffffffffffffffffffffffffffffffffffffff168152602001908152602001600020600082825461053091906112c4565b92505081905550806006600082825461054991906112c4565b925050819055508060056000828254610562919061131a565b925050819055508173ffffffffffffffffffffffffffffffffffffffff167fe1fffcc4923d04b559f4d29a8bfc6cda04eb5b0d3c460751c2402c5c5cc9109c826040516105af9190611025565b60405180910390a25050565b600360019054906101000a900460ff1681565b6001341161061957600360019054906101000a900460ff1615806105f857506105f6336107c8565b155b1561060b5761060633610a02565b610625565b61061433610b52565b610624565b610623333461041b565b5b5b565b61062f610dbb565b73ffffffffffffffffffffffffffffffffffffffff1661064d6106b5565b73ffffffffffffffffffffffffffffffffffffffff16146106a3576040517f08c379a000000000000000000000000000000000000000000000000000000000815260040161069a9061139a565b60405180910390fd5b6106ad6000610dc3565b565b60065481565b60008060009054906101000a900473ffffffffffffffffffffffffffffffffffffffff16905090565b6106e66106b5565b73ffffffffffffffffffffffffffffffffffffffff163373ffffffffffffffffffffffffffffffffffffffff161461071d57600080fd5b600360019054906101000a900460ff161561073757600080fd5b6107416001610e87565b6001600360006101000a81548160ff0219169083151502179055508073ffffffffffffffffffffffffffffffffffffffff166108fc6006549081150290604051600060405180830381858888f193505050501580156107a4573d6000803e3d6000fd5b5050565b60016020528060005260406000206000915054906101000a900460ff1681565b6000600360009054906101000a900460ff168061082e5750600160008373ffffffffffffffffffffffffffffffffffffffff1673ffffffffffffffffffffffffffffffffffffffff16815260200190815260200160002060009054906101000a900460ff165b9050919050565b61083d610dbb565b73ffffffffffffffffffffffffffffffffffffffff1661085b6106b5565b73ffffffffffffffffffffffffffffffffffffffff16146108b1576040517f08c379a00000000000000000000000000000000000000000000000000000000081526004016108a89061139a565b60405180910390fd5b600073ffffffffffffffffffffffffffffffffffffffff168173ffffffffffffffffffffffffffffffffffffffff161415610921576040517f08c379a00000000000000000000000000000000000000000000000000000000081526004016109189061142c565b60405180910390fd5b61092a81610dc3565b50565b600760009054906101000a900473ffffffffffffffffffffffffffffffffffffffff1681565b6109e9816040516024016109679190611025565b6040516020818303038152906040527ff5b1bba9000000000000000000000000000000000000000000000000000000007bffffffffffffffffffffffffffffffffffffffffffffffffffffffff19166020820180517bffffffffffffffffffffffffffffffffffffffffffffffffffffffff8381831617835250505050610ea4565b50565b600454421115610a00576109ff33610ecd565b5b565b6000600260008373ffffffffffffffffffffffffffffffffffffffff1673ffffffffffffffffffffffffffffffffffffffff168152602001908152602001600020549050600360019054906101000a900460ff16610a74578060066000828254610a6c919061131a565b925050819055505b6000600260008473ffffffffffffffffffffffffffffffffffffffff1673ffffffffffffffffffffffffffffffffffffffff168152602001908152602001600020819055508173ffffffffffffffffffffffffffffffffffffffff166108fc829081150290604051600060405180830381858888f19350505050158015610aff573d6000803e3d6000fd5b508173ffffffffffffffffffffffffffffffffffffffff167fbb28353e4598c3b9199101a66e0989549b659a59a54d2c27fbb183f1932c8e6d82604051610b469190611025565b60405180910390a25050565b6000600760009054906101000a900473ffffffffffffffffffffffffffffffffffffffff1673ffffffffffffffffffffffffffffffffffffffff166370a08231306040518263ffffffff1660e01b8152600401610baf91906110f1565b602060405180830381865afa158015610bcc573d6000803e3d6000fd5b505050506040513d601f19601f82011682018060405250810190610bf09190611461565b905060008111610bff57600080fd5b6000600260008473ffffffffffffffffffffffffffffffffffffffff1673ffffffffffffffffffffffffffffffffffffffff16815260200190815260200160002054905060006006548383610c54919061148e565b610c5e9190611517565b90508160066000828254610c72919061131a565b925050819055506000600260008673ffffffffffffffffffffffffffffffffffffffff1673ffffffffffffffffffffffffffffffffffffffff16815260200190815260200160002081905550600760009054906101000a900473ffffffffffffffffffffffffffffffffffffffff1673ffffffffffffffffffffffffffffffffffffffff1663a9059cbb85836040518363ffffffff1660e01b8152600401610d1b929190611548565b6020604051808303816000875af1158015610d3a573d6000803e3d6000fd5b505050506040513d601f19601f82011682018060405250810190610d5e919061159d565b610d6757600080fd5b8373ffffffffffffffffffffffffffffffffffffffff167f5afeca38b2064c23a692c4cf353015d80ab3ecc417b4f893f372690c11fbd9a682604051610dad9190611025565b60405180910390a250505050565b600033905090565b60008060009054906101000a900473ffffffffffffffffffffffffffffffffffffffff169050816000806101000a81548173ffffffffffffffffffffffffffffffffffffffff021916908373ffffffffffffffffffffffffffffffffffffffff1602179055508173ffffffffffffffffffffffffffffffffffffffff168173ffffffffffffffffffffffffffffffffffffffff167f8be0079c531659141344cd1fd0a4f28419497f9722a3daafe3b4186f6b6457e060405160405180910390a35050565b80600360016101000a81548160ff02191690831515021790555050565b60008151905060006a636f6e736f6c652e6c6f679050602083016000808483855afa5050505050565b610ed56106b5565b73ffffffffffffffffffffffffffffffffffffffff163373ffffffffffffffffffffffffffffffffffffffff1614610f0c57600080fd5b600360019054906101000a900460ff1615610f2657600080fd5b610f306001610e87565b8073ffffffffffffffffffffffffffffffffffffffff166108fc6006549081150290604051600060405180830381858888f19350505050158015610f78573d6000803e3d6000fd5b5050565b600080fd5b600073ffffffffffffffffffffffffffffffffffffffff82169050919050565b6000610fac82610f81565b9050919050565b610fbc81610fa1565b8114610fc757600080fd5b50565b600081359050610fd981610fb3565b92915050565b600060208284031215610ff557610ff4610f7c565b5b600061100384828501610fca565b91505092915050565b6000819050919050565b61101f8161100c565b82525050565b600060208201905061103a6000830184611016565b92915050565b6110498161100c565b811461105457600080fd5b50565b60008135905061106681611040565b92915050565b6000806040838503121561108357611082610f7c565b5b600061109185828601610fca565b92505060206110a285828601611057565b9150509250929050565b60008115159050919050565b6110c1816110ac565b82525050565b60006020820190506110dc60008301846110b8565b92915050565b6110eb81610fa1565b82525050565b600060208201905061110660008301846110e2565b92915050565b6000819050919050565b600061113161112c61112784610f81565b61110c565b610f81565b9050919050565b600061114382611116565b9050919050565b600061115582611138565b9050919050565b6111658161114a565b82525050565b6000602082019050611180600083018461115c565b92915050565b600082825260208201905092915050565b7f536f6c64206f7574000000000000000000000000000000000000000000000000600082015250565b60006111cd600883611186565b91506111d882611197565b602082019050919050565b600060208201905081810360008301526111fc816111c0565b9050919050565b7f41646472657373206973206e6f742077686974656c697374656420666f72207060008201527f7572636861736500000000000000000000000000000000000000000000000000602082015250565b600061125f602783611186565b915061126a82611203565b604082019050919050565b6000602082019050818103600083015261128e81611252565b9050919050565b7f4e487b7100000000000000000000000000000000000000000000000000000000600052601160045260246000fd5b60006112cf8261100c565b91506112da8361100c565b9250827fffffffffffffffffffffffffffffffffffffffffffffffffffffffffffffffff0382111561130f5761130e611295565b5b828201905092915050565b60006113258261100c565b91506113308361100c565b92508282101561134357611342611295565b5b828203905092915050565b7f4f776e61626c653a2063616c6c6572206973206e6f7420746865206f776e6572600082015250565b6000611384602083611186565b915061138f8261134e565b602082019050919050565b600060208201905081810360008301526113b381611377565b9050919050565b7f4f776e61626c653a206e6577206f776e657220697320746865207a65726f206160008201527f6464726573730000000000000000000000000000000000000000000000000000602082015250565b6000611416602683611186565b9150611421826113ba565b604082019050919050565b6000602082019050818103600083015261144581611409565b9050919050565b60008151905061145b81611040565b92915050565b60006020828403121561147757611476610f7c565b5b60006114858482850161144c565b91505092915050565b60006114998261100c565b91506114a48361100c565b9250817fffffffffffffffffffffffffffffffffffffffffffffffffffffffffffffffff04831182151516156114dd576114dc611295565b5b828202905092915050565b7f4e487b7100000000000000000000000000000000000000000000000000000000600052601260045260246000fd5b60006115228261100c565b915061152d8361100c565b92508261153d5761153c6114e8565b5b828204905092915050565b600060408201905061155d60008301856110e2565b61156a6020830184611016565b9392505050565b61157a816110ac565b811461158557600080fd5b50565b60008151905061159781611571565b92915050565b6000602082840312156115b3576115b2610f7c565b5b60006115c184828501611588565b9150509291505056fea26469706673582212209b93fada87b81d182f0e61a4a8bbee41ba2a0c427366930425005e983c2025ad64736f6c634300080b0033",
  "linkReferences": {},
  "deployedLinkReferences": {}
}